:100000000C94E4010C942D020C942D020C942D02FE
:100010000C942D020C942D020C942D020C942D02A4
:100020000C942D020C942D020C94C61C0C949E1D55
:100030000C94E5170C942D020C942D020C942D02B7
:100040000C942D020C942D020C942D020C942D0274
:100050000C942D020C943C180C942D020C942D023F
:100060000C942D020C942D020C942D020C942D0254
:100070000C942D020C942D020C942D020C942D0244
:100080000C942D020C942D020C942D020C942D0234
:100090000C942D020C942D02290000003A003B0024
:1000A0003C003D0000003E003F0040004100420097
:1000B000430044004500AC00AE00AB00015300001B
:1000C000000000000000A80035001E001F002000F6
:1000D00021002200230024002500260027002D00F7
:1000E0002E0000002A0049004A004B005300540033
:1000F000550056002B0014001400080015001700CE
:100100001D0018000C00120013002F003000280002
:1001100000004C004D004E005F0060006100570081
:100120000000390004001600070009000A000B0057
:100130000D000E000F0033003400320000000000FC
:100140000000000000005C005D005E000000000098
:10015000E10064001C001B000600190005001100EE
:1001600010001000360037000000E500000000001D
:100170005200000059005A005B0058000000E000E7
:10018000E300E2000000000000002C00000000007E
:1001900000000000E600E7006500E40050005100A8
:1001A0004F00620000006300000000000001010138
:1001B0000101010101010202020202020202020324
:1001C00003030303030303040404040404040505F4
:1001D00005050506060606060707070707080808B7
:1001E00008090909090A0A0A0B0B0B0C0C0C0D0D66
:1001F0000D0E0E0E0F0F0F101011111112121313FE
:100200001414151516161717181819191A1A1B1B76
:100210001C1D1D1E1E1F20202122222324242526D2
:1002200026272829292A2B2C2D2D2E2F303132320A
:10023000333435363738393A3B3C3D3E3F40414216
:10024000434445464748494A4C4D4E4F50515354FC
:10025000555658595A5B5D5E5F61626465666869B0
:100260006B6C6D6F7072737577787A7B7D7E808230
:10027000838587888A8C8E8F91939596989A9C9E79
:10028000A0A2A3A5A7A9ABADAFB1B3B5B7BABCBE89
:10029000C0C2C4C6C9CBCDCFD1D4D6D8DBDDDFE256
:1002A000E4E7E9EBEEF0F3F5F8FAFDFF12034D0099
:1002B0006500680062006F00610072006400000069
:1002C0000803470074004700000004030904090202
:1002D0003B00020100A0FA09040000010301010033
:1002E0000921110100012240000705810308000ACD
:1002F000090401000103000000092111010001228D
:100300006D000705820320000A12011001000000A1
:10031000084D59964D01000102000105010980A117
:1003200001850319012AB700150126B7009501754B
:10033000108100C0050C0901A101850419012AA042
:1003400002150126A002950175108100C005010962
:1003500006A1018505050719E029E7150025019586
:1003600008750181020507190029EF15002501957F
:10037000F07501810205081901290595057501919E
:1003800002950175039101C005010906A101050748
:1003900019E029E7150025019508750181029501ED
:1003A000750881010507190029FF150026FF009532
:1003B0000675088100050819012905950575019143
:1003C00002950175039101C011241FBECFEFD0E249
:1003D000DEBFCDBF04B603FE27C0809129039091F4
:1003E0002A03A0912B03B0912C038730904BA74098
:1003F000B04BD1F41092290310922A0310922B03D0
:1004000010922C0314BE84B7877F84BF0FB6F89474
:10041000A8958091600088618093600010926000D0
:100420000FBEE0E0F0EF099511E0A0E0B1E0EEEEE4
:10043000FFE300E00BBF02C007900D92A439B107A3
:10044000D9F723E0A4E9B1E001C01D92A932B207B7
:10045000E1F70E94FF190C94B91F0C94000081E091
:10046000089581E008950C94310208950C943502AA
:100470001F93CF93DF9300D000D00F92CDB7DEB79C
:1004800049835A836B833091C70189819A813111E5
:100490001DC06623B9F02223A9F00E94E314182F8F
:1004A000682F89819A810E948F1469817A81812FB6
:1004B0000F900F900F900F900F90DF91CF911F91A1
:1004C0000C940C030E94BB14182FEFCF0E94E3146E
:1004D00069817A81EDCFFC01262F408151816281B3
:1004E000738184810C943802CF93DF93EC0160E038
:1004F0000E946B02BE01DF91CF910C9436020E94E4
:100500002916811102C00E94CD160E94F9020C9496
:100510000F050C94120508950E94F90F0E948B029A
:100520002FEF84E39CE0215080409040E1F700C031
:1005300000000C9460180F931F93CF93DF93EC018E
:1005400061E00E946B028C01BE010E94330288238D
:1005500059F1BE01C8010E94BE09882329F1BE01DC
:10056000C8010E94100A8823F9F0BE01C8010E9448
:10057000330B8823C9F0BE01C8010E94CE0888232E
:1005800099F08A81882339F001158CE5180751F01C
:100590000F3D1C4579F0CE01DF91CF911F910F9156
:1005A0000C942F020E948C0280E0DF91CF911F916A
:1005B0000F9108950E94CD16F7CF08950C94DD0297
:1005C00081E00895CF93C82F0E94E002882349F06C
:1005D000C0FF09C0469AC1FF08C0479AC2FF07C0C2
:1005E0002D9ACF9108954698F6CF4798F7CF2D983A
:1005F000F8CF3E9A46983F9A4798259A2D980895A5
:10060000CF93C82F0E94DE028C2FCF910C94E20270
:1006100090E080E008950895972F70E027E1929F81
:10062000600D711D1124FB019AE8899FE00DF11DF9
:100630001124EE0FFF1FE856FF4F85919491089506
:10064000FC01EE0FFF1FE455FE4F85919491089534
:10065000CF93DF930E940C030E943404EC018115B8
:1006600020E5920708F041C0811530E4930708F0B7
:10067000B4C0803E910518F5803C910508F09DC0FE
:10068000883A910570F4853A910508F08EC0813062
:100690009105F9F00097E9F00497D8F4D0E0C0E0B4
:1006A00018C08F3B9105D0F7C85AD0E0CC0FDD1FA2
:1006B000CE5EDE4F0990D881C02DD4640AC081156A
:1006C000904258F4C11581E0D80718F4C83ED1050E
:1006D00028F7CE01DF91CF910895C11590E3D90796
:1006E00008F071C0CE019F706AC0811525E59207A0
:1006F00058F5811534E5930708F09EC0811542E551
:10070000940750F4C11581E5D80708F469C0DC2FBF
:10071000CC27C16FD06ADDCF982F969596959E0114
:1007200023703327C115D34508F077C0C1E0D0E06E
:1007300002C0CC0FDD1F2A95E2F720E2929FC00194
:100740001124C82BD92B67C0C11589E5D807A8F497
:10075000C11598E5D90708F074C0C11526E5D20780
:1007600008F09CCF8C2F0E94CB04C82FD0E0DC2F48
:10077000CC27CC27DF71D062ACCFC1153AE5D307C7
:1007800008F464C0CE0190568115904208F086CFDF
:100790008D2F8F710E94CB0490E0982F8827882797
:1007A0009F719C012C2BE901E6CFC55AD0E0C05CBB
:1007B000DE4FC881D0E0D0648CCF805C91090E946C
:1007C0002003EC0186CFCE019927D3FF03C0EC01B3
:1007D000D86C7FCFEC01D06C7CCFDF70D06A79CF42
:1007E000CE01E4E096958795EA95E1F783702C2F8A
:1007F00026952695237090E2299F90011124382B8D
:100800008C2F8370C1E0D0E002C0CC0FDD1F8A9531
:10081000E2F7C22BD32BDC685CCFC1E0D0E002C092
:10082000CC0FDD1F2A95E2F730E2939FC00111241F
:10083000C82BD92BDA684DCFD82FCC27C46FD06AFC
:1008400048CFDC2FCC27C06FD06A43CF8C2F8F705E
:100850000E94CB0434E0D695C7953A95E1F7CF7066
:100860009C2FEC01D06935CF82389105B1F1B0F4FD
:100870008133910509F475C048F48932910509F472
:1008800069C08A32910509F473C0089585339105D2
:1008900009F459C08933910501F10895833E91050A
:1008A000A9F138F4803E9105F9F0823E910549F1B5
:1008B0000895863E9105A9F1873E9105C9F1843ED0
:1008C000910519F520911B0321FF1FC080911A0388
:1008D00084FD14C087EE90E0089520911A032370E0
:1008E000A1F080EE90E0089520911A0320FD47C00A
:1008F00030911B0330FF09C024FF44C090E080E02A
:1009000004C020911A0322FDF7CF089520911A0305
:1009100022FD3BC030911B0330FDE3CF24FFF5CF18
:10092000EDCF20911A0323FFF0CF24FDE7CFD2CFE4
:1009300020911A0323FD2CC030911B0331FFEECF11
:1009400084EE90E0089520911A0325FFDECF89E21E
:1009500090E0089520911A0325FFD7CF85E390E01A
:10096000089520911A0326FFD0CF8AE290E00895DF
:1009700020911A0326FFC9CF81E390E0089589E30F
:1009800090E0089583EE90E0089582EE90E008955F
:1009900086EE90E0089590911A0392FF06C0282FEA
:1009A00028712830F9F4877F846093FF06C0282FD0
:1009B00028712831F1F4877E846120911B0320FF88
:1009C00006C0382F38713830D9F4877F816021FF15
:1009D00006C0282F28712831D1F4877E816194FDCB
:1009E000877E0895282F24712430F9F68B7F886044
:1009F000DCCF282F2471243101F78B7E8861DDCF75
:100A0000382F3171313019F78E7F8860E0CF282F71
:100A10002171213121F78E7E8861E1CF08950C94F8
:100A20000E0508950C94110594E0899FF00111249E
:100A3000ED53FD4F60817181828193810895089506
:100A400080EA8A95F1F7089500C008950C94200576
:100A5000F894E82FE295EF70F0E031A1282F2F7085
:100A600081E090E001C0880F2A95EAF7982F9095D1
:100A7000932391A392A1892B82A3789408950F9335
:100A80001F93CF93DF9380E30E94280584E30E94A5
:100A9000280585E30E94280586E30E94280587E350
:100AA0000E94280584EC0E942805C3E4D1E00AE5F1
:100AB00011E089910E9428050C171D07D1F7EBEA78
:100AC000F2E0A3ECB2E011921192119211921D92F8
:100AD0001D921D921D9282E0E33CF807A1F786E08B
:100AE0000E941B06DF91CF911F910F910C947F0202
:100AF0004F925F926F927F928F929F92AF92BF922E
:100B0000CF92DF92EF92FF920F931F93CF93DF93D9
:100B10003AE5A32E31E0B32E0BEA12E0D0E0C0E0BC
:100B200088248394912CF50181915F01F894E82F3A
:100B3000E295EF70F0E021A18F70240102C0440C17
:100B4000551C8A95E2F7C201922F982B91A392A18E
:100B50008095892382A378940E942405A3E4B1E0C0
:100B600090E080E0C12CD12C76014D91E42FE295EC
:100B7000EF70F0E020A130E04F7002C0359527956E
:100B80004A95E2F720FD51C0412C512C320143948B
:100B9000082E04C0440C551C661C771C0A94D2F71E
:100BA000B301A201C42AD52AE62AF72A0196873181
:100BB0009105D9F6F501319780810E942805D5303D
:100BC00011F00E942605F80180819181A281B381F4
:100BD000C816D906EA06FB0661F1C082D182E2821C
:100BE000F38281E0C82BDF5F0C5F1F4FD63009F026
:100BF0009ACF2C2F46E063EC72E08BEA92E00E94E1
:100C00001C060E9489028C2FDF91CF911F910F91BA
:100C1000FF90EF90DF90CF90BF90AF909F908F901C
:100C20007F906F905F904F90089540E050E0BA0140
:100C3000B9CF80E0D7CF0895FF920F931F93CF9342
:100C4000DF93F82ED92F8B01C42F222349F081E0A6
:100C5000809398010E9415189093970180939601B4
:100C600080919801882399F0809196019091970145
:100C70000E942D18069758F0EF2DFD2FD80190E017
:100C800080E0D0E08C179D0744F010929801DF912E
:100C9000CF911F910F91FF90089501911191219192
:100CA00031910D931D932D933D930196EBCFEF92D0
:100CB000FF920F931F93CF93DF93EB01E82FD11196
:100CC00010C0442321F0F0E0E455FE4FE4916E2F74
:100CD0007E2F8E2FDF91CF911F910F91FF90EF907C
:100CE00008950D2F10E0282F30E0442329F02455DB
:100CF0003E4FF901249130E0F6E0CF9FC00111246E
:100D0000EFEFF0E0BF010E94541FAB018C2F90E089
:100D1000880F991FA5E5A49FB001A59F700D112410
:100D2000861B970B982F990F980FBF01601B710BB3
:100D3000629FD001639FB00D729FB00D11248B2F65
:100D40009D9FB0011124672F7727EF01C61BD70B9A
:100D5000BE01629FE001639FD00D729FD00D1124F0
:100D60007F01E91AF108E09EB001E19E700DF09E4E
:100D7000700D1124672F7727E61BF70BE29F800188
:100D8000E39F100DF29F100D1124E12F722F4230BE
:100D9000510599F048F44115510569F0413051056C
:100DA00081F0EB2F8D2F07C04430510569F080F0A2
:100DB00046305105B1F76E2F8DCFE22F7B2F812F5B
:100DC000FACFE22F7D2FF7CFEB2F822F712FF3CFAA
:100DD0007B2F822FED2FEFCF41E00C9457060C9420
:100DE000EC06CF93DF93762FE901682F842F0E94C2
:100DF000EF06798368838A83DF91CF91089580918C
:100E0000DB02982F9E7F39F48091DB028170826033
:100E10008093DB0208958430B8F7089588E090E06D
:100E20000C94791FCF92DF92EF92FF926B017C01BD
:100E30000E94FF06B701A60188E090E0FF90EF90C6
:100E4000DF90CF900C94971FEBEDF2E083E080836E
:100E500011828FEF8283838314826081718182810A
:100E600093810C9412079091DF02933018F49F5FE6
:100E70009093DF02882351F06091DB027091DC02D5
:100E80008091DD029091DE020C941207089581E0BA
:100E90000C9433079091DF02992319F091509093AD
:100EA000DF02882351F06091DB027091DC028091B7
:100EB000DD029091DE020C941207089581E00C94FB
:100EC0004A0770E00C942609609101018091DB02D1
:100ED00080FF0AC08091000123E0829FC00111249D
:100EE00080529D4F0C946107809102019091030103
:100EF00023E0829FF0011124E052FD4F891750F743
:100F00001182108212828F5F3396F8CFEBEDF2E000
:100F100080818E7F808360817181828193810E9434
:100F200012072FEF80E792E0215080409040E1F7D8
:100F300000C000000C9464079091DB0290FF14C085
:100F4000909102012091030133E0939FF00111245D
:100F5000E052FD4F921710F00C9464078183608378
:100F600042839F5F3396F6CF0895EF92FF920F93DF
:100F70001F93CF93DF9300D00F92CDB7DEB7F82E3B
:100F8000062F142FE22E8091DB0280FF28C0E82F6D
:100F9000E695F0E0E05AFE4F908190939A018E7FA3
:100FA000823059F49E012F5F3F4F8F2D0E94F10632
:100FB0004B8169818A810E949C07F092DC02009338
:100FC000DD021093DE02EE2051F06091DB027091A1
:100FD000DC028091DD029091DE020E9412070F90E8
:100FE0000F900F90DF91CF911F910F91FF90EF9095
:100FF0000895EBEDF2E09181282F4381628188E032
:10100000890F0C94B50781E00C94F907EBEDF2E041
:101010009181282F4381628188EF890F0C94B50755
:1010200081E00C940608EBEDF2E0628128E0620FAB
:1010300008F46FEF282F438181810C94B50781E07C
:101040000C941308EBEDF2E0628128E0621B08F4D7
:1010500060E0282F438181810C94B50781E00C94D6
:101060002208EBEDF2E0438128E0420F08F44FEF55
:10107000282F628181810C94B50781E00C9431089E
:10108000EBEDF2E0438128E0421B08F440E0282F1A
:10109000628181810C94B50781E00C94400820E0C6
:1010A0000C94B5078091DB0280FF18C081708260CC
:1010B0008093DB02662351F06091DB027091DC02C9
:1010C0008091DD029091DE020E9412074091DE02C3
:1010D0006091DD028091DC020C944F080895682F26
:1010E00081E00C94520881E00C946F08682F909175
:1010F000DB0296958FEF890F09F481E00C9452087A
:1011000081E00C94760861E00C945208EBEDF2E07B
:1011100080818160808386950C9483088091DB02B6
:1011200080FD0C9486070C94860860E00C945208AD
:101130008091990181112CC00E942916811104C04F
:101140000E94CD160E9424070E940E076093DB02C6
:101150007093DC028093DD029093DE026E7F61F477
:101160000E9424070E940E076093DB027093DC024A
:101170008093DD029093DE020E94FF068091DB02E5
:1011800080FF03C086950E94950881E080939901B5
:101190000895FA01811101C0FB0109940F931F9377
:1011A000CF938C01FB01C281CC2309F44DC00E9476
:1011B00078158272F801E35CFC45E431F10538F4FE
:1011C000E554F04E0C94681F0E948E08C0E08C2FEE
:1011D000CF911F910F91089540E858E063E778E0C0
:1011E0000E94C908F3CF43E758E060E878E0F8CF01
:1011F00040E158E063E078E0F3CF43E058E060E19D
:1012000078E0EECF4EE258E06FE178E0E9CF4FE1D1
:1012100058E06EE278E0E4CF4CE458E06DE378E02B
:10122000DFCF4DE358E06CE478E0DACF4EE557E0ED
:1012300067E477E0D5CF47E457E06EE577E0D0CFBD
:1012400081E00E948308C2CFC1E0C1CF6A9A4EB14B
:101250004B7F5EB15460EFB7F8949B01220F331FB0
:10126000260F371F280F391F2817390741F4EFBF02
:101270008FE594E00197F1F700C000000895DC01CC
:101280006D91CD0178E05EB9000000C067FF4EB9F6
:10129000660F000000C000C000C04EB900C07A95C3
:1012A00091F7E2CF0F931F93CF93DF93C42FD22FE9
:1012B000FC0182818823C9F040939E010E94151889
:1012C00090939D0180939C0180E28C0F883008F000
:1012D00050C0C77081E001C0880FCA95EAF7DF915E
:1012E000CF911F910F910C948F0D10919E011413AB
:1012F00035C080919C0190919D010E942D18883CE1
:10130000910560F5C0E2CD0F1D17B9F080E2810FA5
:10131000883040F4177081E001C0880F1A95EAF711
:101320000E94960DC83048F481E09D2F977001C04F
:10133000880F9A95EAF70E948F0D802F0E94870DE3
:10134000C830B8F4D77081E001C0880FDA95EAF7A9
:10135000DF91CF911F910F910C94960D80E28C0F2D
:10136000883038F4C77081E001C0880FCA95EAF769
:10137000EFCFDF91CF911F910F9108950F939C01B3
:10138000CB01243F4CE5340759F1A8F4293DFCE595
:101390003F0701F12A3D4CE53407D1F1283D3C459A
:1013A00091F406E221EE41EE68ED7CE50E945209DF
:1013B00080E00F910895263FFCE53F07E9F0B0F08B
:1013C000273F3C45F9F0FC018281882339F11092D6
:1013D0009E01EFCF07E225EE45EE69ED7CE5E6CF15
:1013E00006E221EE40EE64EF7CE5E0CF07E225EE79
:1013F00044EE65EF7CE5DACF06E221EE42EE66EFE1
:101400007CE5D4CF07E225EE46EE67EF7CE5CECF54
:1014100008E221E045EE6AED7CE5C8CF81E0C9CF66
:10142000CF93DF93EC01FB018281882309F419C17A
:10143000C230FCE5DF07C0F1C6319CE5D90730F0CA
:101440009E012B5F3C452930310570F50E943C160A
:1014500090931B0380931A03C031ECE5DE0709F477
:10146000CFC008F05BC0C8308CE5D80709F4B6C01F
:1014700088F5C430ECE5DE0709F4A8C0C0F4C2303A
:101480008CE5D80709F49CC080911A038260C330B0
:10149000DC4509F498C080911A0390911B030E94C7
:1014A0004A160E94F90F80E0DF91CF910895809154
:1014B0001A038061C630ECE5DE0709F484C0809130
:1014C0001A038860C730DC4508F47DC080911A0398
:1014D000806279C0CC308CE5D80709F489C070F4FB
:1014E00080911A038C60CA30ECE5DE0709F46BC00A
:1014F00008F478C080911A038E7F65C0CE308CE5E9
:10150000D80709F479C080911A038B7FCF30DC456E
:1015100008F459C080911A038F7E55C0CC3FECE58A
:10152000DE0709F457C030F5C3318CE5D80709F45C
:101530006FC078F4C131ECE5DE0709F465C0C23153
:10154000DC4509F0A8CF0E94F90F80911A038F772C
:101550003AC0C5318CE5D80709F462C008F476C0FA
:1015600080911B038160CB3FDC4509F094CF8093D1
:101570001B0391CFC115FDE5DF0709F44DC088F4C9
:1015800080911B038D7FCE3F9CE5D90781F380912D
:101590001B038E7FCF3FDC4550F380911B0383609C
:1015A000E6CFC230FDE5DF0709F459C008F444C0B6
:1015B00080E0C330DD4509F06ECF0E94CF166BCFBF
:1015C00080911A03816080931A0365CF80911A037A
:1015D0008460F9CF80911B038260C9CF80911A0388
:1015E0008064F1CF0E94F90F80911A038068EBCFDD
:1015F00080911A038D7FE7CF80911A03877FE3CF15
:1016000080911A038F7DDFCF80911A038F7BDBCF10
:1016100080911A03837FD7CF80911B038C7FA7CF44
:1016200080911A0382FB992790F921E0922790FB81
:1016300082F990FB83F9C7CF80911B03982F909577
:1016400091708E7F892B90FB81F991CF0E94F90FC9
:1016500090911A03892F97FB87F98058B4CF81E0C6
:10166000ACCF81E021CFCF93DF93EB0186319C4556
:1016700011F50E9478159A81992399F08A7A91E060
:1016800009F490E090939F01811109C089E20E94C2
:1016900053150E94C41580E0DF91CF91089585E332
:1016A000F6CF80919F01811104C089E20E945A15F2
:1016B000F0CF85E3FBCF81E0EFCF9093A50180933E
:1016C000A4010895E091A401F091A501309721F0C3
:1016D0000190F081E02D099480E00895E091A4014B
:1016E000F091A501309799F020911101222359F032
:1016F00020911A0327FF07C0DC012C9111962C932F
:10170000119725E02C930280F381E02D0994089530
:101710002091A2013091A3012817390771F090930D
:10172000A3018093A201E091A401F091A50130975B
:1017300021F00680F781E02D099408952091A00101
:101740003091A1012817390771F09093A10180937E
:10175000A001E091A401F091A501309721F000844F
:10176000F185E02D099408950E9421186093C3012A
:101770007093C4018093C5019093C6016093BF012B
:101780007093C0018093C1019093C201089585B701
:10179000806885BF85B7806885BF089508950895DE
:1017A0000C94CE0B08950C94D20B0E94C70B87E2C9
:1017B00096E10E9484180E94CF0B0C94D00B81E01C
:1017C00008950C94DF0B089508950E940C180E9450
:1017D0003F050E9489180E9498080C94D30B4F92E1
:1017E0005F926F927F928F929F92AF92BF92CF92B1
:1017F000DF92EF92FF920F931F93CF93DF93CDB7BA
:10180000DEB72A970FB6F894DEBF0FBECDBF0E9499
:10181000E30B0E94E40B0E94780581110E94B40B37
:1018200057EAA52E51E0B52E10E000E0802E802F63
:101830000E9414052B013C01F501C190D190E1906B
:10184000F1905F01C414D504E604F70409F475C0EF
:101850008091870281FD0E941F05D701C601842562
:101860009525A625B725912CC12CD12C7601C394A2
:10187000AC01BD014C215D216E217F21452B462B02
:10188000472B09F452C00E94E10B8823C9F09E82C5
:101890008F824C205D206E207F2081E045284628E5
:1018A000472809F480E088870E9415188160782F06
:1018B0009A8789874E815F8168858A850E94CB0CD3
:1018C000000F111F000F111FF801E955FE4F808115
:1018D0009181A281B3818C259D25AE25BF25808372
:1018E0009183A283B3830E94620B9091A601891712
:1018F000D9F10E94620B8093A6012A960FB6F89444
:10190000DEBF0FBECDBFDF91CF911F910F91FF9032
:10191000EF90DF90CF90BF90AF909F908F907F908F
:101920006F905F904F900C9400039394CC0CDD1C4F
:10193000EE1CFF1CF7E19F129BCF0F5F1F4F06307D
:10194000110509F073CF8FEF89838A831B820E9470
:1019500015188160782F9D838C8349815A816B8112
:101960008D810E94CB0CBFCF2A960FB6F894DEBFB4
:101970000FBECDBFDF91CF911F910F91FF90EF90E0
:10198000DF90CF90BF90AF909F908F907F906F909F
:101990005F904F900895DF92EF92FF920F931F9305
:1019A000CF93DF93CDB7DEB72B970FB6F894DEBF9A
:1019B0000FBECDBF7A878B87F42E052F162FE72E0B
:1019C000D82E61110E9498151E821D827E2DEC82F8
:1019D000DD824F2D502F612F8D2D9E812B960FB6BE
:1019E000F894DEBF0FBECDBFDF91CF911F910F9155
:1019F000FF90EF90DF900C946F12FC018081918139
:101A00000C942515CF93C82F882309F43FC08CEF81
:101A10008C0F813AA0F46C2F809105019091060102
:101A20000E94E816882329F08C2F0E945A150E94E4
:101A3000C4158C2F0E945315CF910C94C41580E2CD
:101A40008C0F883048F4C77081E001C0880FCA95B8
:101A5000EAF70E947B15F0CFEBE5EC0FE33040F4A2
:101A6000F0E0E057FE4F808190E0CF910C94880B1E
:101A7000C85AC73158F4EC2FF0E0EE0FFF1FEE59B3
:101A8000FE4F80819181CF910C949E0BCF91089550
:101A9000882329F19CEF980F913A20F40E945A155F
:101AA0000C94C41590E2980F983050F4877091E030
:101AB00001C0990F8A95EAF7892F0E948115F0CF0E
:101AC0009BE5980F933020F490E080E00C94880B15
:101AD000885A873120F490E080E00C949E0B0895A2
:101AE0001F93CF93DF93182FEB010E94020D2097D5
:101AF00031F4812FDF91CF911F910C94480D8FE924
:101B00009FE00197F1F700C000002197F0CF70E04F
:101B100060E0893311F460E570E00C94700D882367
:101B200021F00E947B150C94C4150895882321F0A0
:101B30000E9481150C94C4150895BF92CF92DF9234
:101B4000EF92FF920F931F93CF93DF936C01D62FE9
:101B5000C72FFC011281058102950F700E9471153B
:101B6000E82E8823A1F0E12E112389F08C2F807FAD
:101B7000803429F080E28D0FE12C883040F082E043
:101B80000E940F160E94711591E0E82EE926BC2EE6
:101B9000B2949FE0B922EB2DF0E0E153F04E0C94AB
:101BA000681F0C2F0F70C07F11F00295007F11236A
:101BB000A9F0002359F080E28D0F883010F0D11188
:101BC00009C0802F0E947B150E94C4158D2F0E9492
:101BD000020D14C0802F0E948B15F6CF8D2F0E940E
:101BE000480D002359F080E28D0F883010F0D1119C
:101BF0002CC0802F0E9481150E94C4152B2D2850C7
:101C0000330B2430310520F40E94620B0E94000344
:101C1000EE2009F493C10E946D1580FD8FC1F6017D
:101C200012820E9467150E94F313C6010E94BF0F23
:101C30000E946715DF91CF911F910F91FF90EF9058
:101C4000DF90CF90BF900C941414802F0E949115B8
:101C5000D3CFFC2FFF70FF2EC07FC03219F0F2945B
:101C600080EFF822DD2369F0D13049F1112391F1A1
:101C7000002351F1F601858180FFA8CF8F70858305
:101C800023C0112381F0011106C00E94AB158F29DA
:101C90000E948F0DB3CF0130C1F70E94AB158F2981
:101CA0000E94B115ABCF011106C00E94BA158F2D4D
:101CB0000E94960DA3CF013009F4A0CFF6CF1123D7
:101CC00029F0063008F09ACF8F2DE2CF053008F0CA
:101CD00095CFEDCF002359F3D93349F4FFEF27EE29
:101CE00033E0F15020403040E1F700C000008D2F7C
:101CF0000E94480D83CF8C2F86958695837069F05E
:101D0000813009F07BCF8D2F9C2F9370111102C071
:101D100090E080E00E949E0B71CF8D2F9C2F9370DE
:101D2000111102C090E080E00E94880B67CF8C2FD9
:101D3000837009F041C0111161CF4D2F4295469536
:101D40004770440F440F0D2F0F7010E030E020E07B
:101D5000042E04C0000F111F221F331F0A94D2F754
:101D600060E070E0CB01D4FF0FC06FE070E080E076
:101D700090E004C0660F771F881F991F4A95D2F71D
:101D80006095709580959095C695C695C370602BAB
:101D9000712B822B932BC23049F058F4C13019F0CB
:101DA0000E94A5132BCF0E94931328CF0E94B71334
:101DB00025CF0E94911322CF8695112311F08C2FED
:101DC0008170882309F41ACF4D2F429546954770AC
:101DD000440F440F0D2F0F7010E030E020E0042E70
:101DE00004C0000F111F221F331F0A94D2F760E0B6
:101DF00070E0CB01D4FF0FC06FE070E080E090E0B6
:101E000004C0660F771F881F991F4A95D2F7609507
:101E1000709580959095C695C695C370602B712B73
:101E2000822B932BC23049F058F4C13019F00E9434
:101E30006A14E4CE0E945814E1CE0E947C14DECED7
:101E40000E94CD13DBCECF70112329F08C2F0E947E
:101E5000F3138D2F1DCF8D2F0E94960D8C2F0E9476
:101E60001414CCCED23F89F160F4D03FC9F0D13FF9
:101E700029F1112309F442C00111A8CE8C2F8F71D2
:101E800021C0D33F39F1D43FA1F7112369F1CF71BC
:101E90008C2F0E94F31363E08C2F0E94FA15AECEB4
:101EA000112341F0053008F0A9CE8C2F8F710E94CC
:101EB0003714A4CE063008F0A1CEF7CF8C2F8F7147
:101EC000112369F20E94F31399CE8C2F8F71112385
:101ED000C9F3C5CF112329F08C2F8F710E94DE1317
:101EE0008DCE0E94D9138ACE81E00E940F16023057
:101EF00008F484CE82E00E940F1680CE002359F0B1
:101F0000D93309F0F4CE8FEF97EEE3E081509040A3
:101F1000E040E1F7EACE8C2F8F71A1CF4C2F4F70AC
:101F20006D2FC6010E9408030E94091367CE4C2F33
:101F30004F706D2FC6010E940B0360CEDF91CF91D1
:101F40001F910F91FF90EF90DF90CF90BF90089579
:101F50000F931F93CF93DF93EC01688179818A817E
:101F60000E942F158C010E948E140E949013B801BC
:101F7000CE01DF91CF911F910F910C949D0DCF93C6
:101F8000DF93EC018B819C81892B29F088819981D9
:101F900089238F3F59F4DF91CF910895CE010E949C
:101FA000A80FCE01DF91CF910C947402CE010E9454
:101FB0009B028111F3CF0E947115882361F38A81FE
:101FC000882349F382E0DF91CF910C940F1690E0C3
:101FD00080E00E94880B90E080E00E949E0B0E94AF
:101FE00098150E94A8150C94C4150E9461150C94B4
:101FF000E70F0E9488150C94F50FE92FE295EF701A
:10200000E250EE3070F4F0E0E152F04E0C94681FB4
:10201000803F19F020F4883E20F481E00895843F49
:10202000E1F380E00895883EC0F3813FD1F7F5CF1A
:1020300093FB882780F908950E9425150C94FD0FC5
:10204000CF93DF9300D000D00F92CDB7DEB70F90C3
:102050000F900F900F900F90DF91CF910895CF9335
:10206000DF9300D000D000D0CDB7DEB726960FB6F4
:10207000F894DEBF0FBECDBFDF91CF9108951F93BF
:10208000CF93DF93C091C80116E08091C9018C13F2
:1020900004C0DF91CF911F910895D0E01C9FF00103
:1020A0001D9FF00D1124E653FE4F40815181628146
:1020B0007381848195810E942F102196C770E5CF8E
:1020C0004091FA015091FB016091FC017091FD017A
:1020D0008091FE019091FF010C942F101F93CF93DC
:1020E000DF938091FF01807FA9F48091FC01882318
:1020F00089F08091C801C091C9016091FA01709185
:10210000FB01A091FD01B091FE01D62FD72316E06F
:10211000C81304C0DF91CF911F91089590E01097EC
:1021200011F0DF3F19F401968770F2CF189F9001EC
:10213000199F300D1124F901E653FE4F41814713D9
:10214000F2CF40814613EFCF42814111ECCF438162
:1021500054814A1B5B0B483C510528F78091FF01D5
:102160008F7080618093FF01F901E153FE4F808100
:102170008F70806180838AEF91E00E94BF0FDF91B2
:10218000CF911F910C943F10AF92BF92CF92DF92EC
:10219000EF92FF920F931F93CF93DF93CDB7DEB7EC
:1021A00061970FB6F894DEBF0FBECDBF8C0185E0FE
:1021B000F801DE011D9601900D928A95E1F7F80174
:1021C00040815181E2808AEFC82E81E0D82E609153
:1021D000FD017091FE016115710509F461C19091D5
:1021E000FA012091FB01892F82238F3F09F458C106
:1021F000A380B480F090FC01F501E61BF70BFF20F3
:1022000009F4FCC08091FF01382F307FE83CF105D4
:1022100008F0B2C0311179C0FE2C251323C09413ED
:1022200021C0E1101FC08F7080618093FF010E9468
:102230006010C6010E94BF0F8091FF01F8018583E5
:102240008F2D61960FB6F894DEBF0FBECDBFDF9124
:10225000CF911F910F91FF90EF90DF90CF90BF90A3
:10226000AF900895AB2829F0842F85238F3F09F084
:1022700033C180E0F82FF170DF2E80FF3CC08091E9
:10228000C8012091C90136E0821315C04D875E87D1
:102290008D859E850E942515292F22952F7022302D
:1022A000F0F0243018F59F70F1F0F8019581907FDF
:1022B000D1F4D12C1EC090E0389FF001399FF00D71
:1022C0001124E653FE4F6181651306C060816413DB
:1022D00003C062816E110FC001968770D5CF9F70C9
:1022E00011F0882331F3805E883018F3C8010E9412
:1022F000BF0FFD2CA5CFEE2009F4A2CF8091FF01E6
:1023000081608093FF01F12C9BCF251306C09413AD
:1023100004C0F801EE2009F48DC04D875E878D85DD
:102320009E850E941C10882319F1EE2009F18091EE
:10233000FF01803270F02091FA013091FB01388763
:102340002F831986BB86AA868C87CE0107960E94AA
:10235000BF0F86E0F801AAEFB1E001900D928A95D7
:10236000E1F70E946E100E946010FF24F39468CF82
:10237000C8010E94BF0FF9CF311113C07A2DB98A5D
:10238000A88A6E2D89890E9420108AEF91E00E9410
:10239000BF0F86E0F60111928A95E9F70E9460105E
:1023A000B2CF25130FC094130DC0E1100BC0F8017C
:1023B0008583C8010E94BF0F86E0F60111928A95BD
:1023C000E9F73ECF4D875E878D859E850E941C1064
:1023D000882371F2EE2061F28091FF01803208F4CF
:1023E000B8CF2091FA013091FB013A8329831B82F7
:1023F000BD82AC828E83CE010196A9CFE83CF10567
:1024000008F041C0FE2CEE2009F4B2CF25132AC0FB
:10241000941328C08091FF0180FD1BC0982F907FEE
:10242000C1F0F8018583903F31F0982F907F905F45
:102430008F70892B8583C8010E94BF0F86E0F80149
:10244000AAEFB1E001900D928A95E1F70E94601029
:10245000F7CE86E0F801AAEFB1E001900D928A95DF
:10246000E1F7EECE4D875E878D859E850E941C101C
:1024700081116FCF8091FF0181608093FF01C801BE
:102480000E94BF0FDDCE7A2DB98AA88A6E2D898968
:102490000E94201086E0F60111928A95E9F7D6CFC6
:1024A000EE2009F465CF4D875E878D859E850E945D
:1024B0001C10F82E882309F45BCF86E0F801AAEF00
:1024C000B1E001900D928A95E1F78AEF91E00E94C8
:1024D000FD0C0E946E10BACF81E08E25CBCE1F93EB
:1024E000CF93DF93CDB7DEB72C970FB6F894DEBF4E
:1024F0000FBECDBF4F83588769877A878B879C87AC
:10250000CE0107960E94C410882369F08A859B85B6
:10251000892B39F04F815885842F85238F3F09F00F
:1025200071C016E05FC086E0FE013796DE011196AD
:1025300001900D928A95E1F78A859B85892B89F315
:102540008F81988589238F3F61F32091C90130E005
:10255000C9010196877099274091C801481719064B
:1025600071F40E94F90F1092C9011092C80186E01F
:10257000EAEFF1E0DF011D928A95E9F7D2CF96E00C
:10258000929FD001939FB00D1124A653BE4FFE0120
:10259000319601900D929A95E1F78093C9010E94BE
:1025A0003F10BFCF819FC001112486539E4F0E94D0
:1025B000C4108823E9F0E091C8011E9FF0011124A6
:1025C000E653FE4F40815181628173818481958100
:1025D0000E942F108091C80190E001968770992782
:1025E0008093C8018091C8019091C9018913DACF05
:1025F0002C960FB6F894DEBF0FBECDBFDF91CF9102
:102600001F91089569857A858B859C850E942F107E
:1026100088CFEF92FF920F931F93CF93DF938C019C
:10262000892B81F0F12CEE24E394E8012196F80146
:102630008491843770F4843008F05FC08130B1F049
:102640008230A1F1DF91CF911F910F91FF90EF9018
:102650000895853709F44CC008F43DC09CE7980FF5
:10266000903780F78F770E94480D49C00E5F1F4F4B
:10267000FE01849190E2980F983060F48770FE2DEF
:1026800001C0FF0F8A95EAF78F2F0E949B150E94C9
:10269000C41502C00E94020D8F2D815030F2EFE967
:1026A000FFE03197F1F700C00000F7CF0E5F1F4F3A
:1026B000FE01849190E2980F983050F48770FE2DBF
:1026C00001C0FF0F8A95EAF78F2F0E94A115DFCF77
:1026D0000E94480DE1CF0E5F1F4FFE01C491C15013
:1026E000D8F28FE99FE00197F1F700C00000F7CF23
:1026F0000E5F1F4FFE01F490CFCF0E94020D8E019E
:10270000CBCF08950C9481130E94821360935E02D4
:1027100070935F0280936002909361020C94E70FC4
:1027200008950C9484130F931F9300915E021091EF
:102730005F022091600230916102602B712B822B2D
:10274000932B1F910F910C9484130F931F9300915F
:102750005E0210915F02209160023091610260235D
:102760007123822393231F910F910C9484130F9351
:102770001F9300915E0210915F02209160023091E0
:10278000610260277127822793271F910F910C9474
:1027900084130C9481130C94C9130E94CB1360937F
:1027A0005A0270935B0280935C0290935D020C94DA
:1027B000E70F60E070E0CB010C94CD130F931F93F3
:1027C00041E050E060E070E08A019B0104C0000F2E
:1027D000111F221F331F8A95D2F7C901B8011F911B
:1027E0000F910C94CD130F931F9341E050E060E0E4
:1027F00070E004C0440F551F661F771F8A95D2F7FB
:1028000080915A0290915B02A0915C02B0915D02AE
:102810008A019B01082B192B2A2B3B2BC901B801DC
:102820001F910F910C94CD130F931F9341E050E033
:1028300060E070E004C0440F551F661F771F8A9543
:10284000D2F7CB01BA016095709580959095009173
:102850005A0210915B0220915C0230915D0260236C
:102860007123822393231F910F910C94CD130F9307
:102870001F9341E050E060E070E004C0440F551F3A
:10288000661F771F8A95D2F780915A0290915B025A
:10289000A0915C02B0915D028A019B010827192773
:1028A0002A273B27C901B8011F910F910C94CD1322
:1028B0000F931F9300915A0210915B0220915C02CA
:1028C00030915D02602B712B822B932B1F910F9106
:1028D0000C94CD130F931F9300915A0210915B0239
:1028E00020915C0230915D02602371238223932347
:1028F0001F910F910C94CD130F931F9300915A02C7
:1029000010915B0220915C0230915D02602771277B
:10291000822793271F910F910C94CD13089527E1DF
:10292000929F800D1124982F977041E001C0440FB1
:102930009A95EAF786958695869595E0899FF001A8
:102940001124E050FE4F90E080E070E05191DF01F3
:1029500011979B01082E02C0369527950A94E2F73D
:10296000217021952527242325272C930196853036
:10297000910561F7089527E1929F800D1124982F0A
:10298000977086958695869525E0829FF0011124A3
:10299000E050FE4F50E040E080E0219130E0092E11
:1029A00002C0369527950A94E2F721703327042E4A
:1029B00001C0220F0A94EAF7822B4F5F5F4F453028
:1029C000510559F70895BF92CF92DF92EF92FF928F
:1029D0000F931F93CF93DF938C01C0905A02D09036
:1029E0005B02E0905C02F0905D0280915E0290914B
:1029F0005F02A0916002B0916102C82AD92AEA2A36
:102A0000FB2ACFE1D0E0BC2ED701C6010C2E04C0BA
:102A1000B695A795979587950A94D2F780FD0EC035
:102A2000219788F7B12C8B2DDF91CF911F910F91BA
:102A3000FF90EF90DF90CF90BF900895B8018C2F5A
:102A40000E942803019761F3EECFCF93DF93EC014F
:102A50000E94E314BE01DF91CF910C9428031F93D1
:102A6000CF93DF93EB019091C701992331F0CB0114
:102A7000DF91CF911F910C942515882379F0CB011C
:102A80000E94E314182F682FCE010E948F14BE01FC
:102A9000812FDF91CF911F910C942803CB010E94CD
:102AA000BB14182FF4CF682F809105019091060177
:102AB0000C946817682F80910501909106010C9481
:102AC000731780910501909106010C947E178091F7
:102AD000620285958595859508958091620287703B
:102AE000089590916202977081E009F480E0089562
:102AF00080918602089590918602892B80938602A8
:102B00000895809590918602982390938602089567
:102B100010928602089590918502892B80938502F8
:102B20000895809590918502982390938502089549
:102B300010928502089590918402892B80938402DB
:102B4000089580959091840298239093840208952B
:102B500010928402089580916302089508950C9460
:102B6000AE1590916302981721F0809363020C9444
:102B7000AF15089580916302882329F010926302B3
:102B800080E00C94AF150895E0910501F0910601E5
:102B9000809186028083E0910501F0910601808199
:102BA00090918502892B8083E0910501F0910601C7
:102BB000808190918402892B808390916302992374
:102BC00081F0E0910501F09106018081892B8083DD
:102BD00080910501909106010E94D41681110E94F6
:102BE000BA1580910501909106010C946E0B089521
:102BF0000C94F71598E0899F90011124622B609343
:102C000062020E94F31380916202859585958595F5
:102C10000C94F8151092620280E00C94F8159091D3
:102C200062028095892380936202282F277071F4B5
:102C3000282F082E000C330B9217130639F08595B8
:102C4000859585950E9414140C940A16089580E0C9
:102C5000089590E080E00E947F1F21E08B3E9E4F10
:102C600009F020E0822F089582E090E00C94711F1B
:102C700083E090E00C94711FCF9384E090E00E9479
:102C8000711FC82F81E290E00E94711F982F8C2F36
:102C9000CF910895CF93C92F682F84E090E00E94D0
:102CA000851F6C2F81E290E0CF910C94851FAB01C2
:102CB000BC018FE090E00C94971FAB01BC0183E155
:102CC00090E00C94971F60E070E0CB010C945D16CF
:102CD00060E070E0CB010E9457160C9463166BEE17
:102CE0007EEF90E080E00E94A31F60E082E090E031
:102CF0000E94851F60E083E090E00E94851F109293
:102D00005E0210925F02109260021092610260E017
:102D100084E090E00E94851F60E081E290E00E94E4
:102D2000851F60E085E090E00E94851F60E086E0FE
:102D300090E00E94851F6FEF87E090E00E94851F62
:102D400040E050E0BA0188E090E00E94971F60E008
:102D50008DE090E00E94851F40E050E0BA0188E1DC
:102D600090E00E94971F60E087E190E00E94851F3D
:102D700040E050E0BA018CE190E00E94971F60E0D3
:102D800080E290E00E94851F40E050E0BA0188E1B7
:102D900090E00E94971F0C9468160C946F16682F91
:102DA0008EE090E00C94851FFC0132968091110119
:102DB000882321F080911A039EE187FF96E080E04E
:102DC000915008F4089521912223D1F38F5FF8CF19
:102DD000662301F1209111012223F1F020911A03C1
:102DE00027FF1AC0462F4695469546954E3190F4DA
:102DF000677021E030E002C0220F331F6A95E2F7CE
:102E0000840F911DFC01828190E02823392381E009
:102E1000232B69F480E00895FC01329608962191F5
:102E2000261721F0E817F907D1F7F4CF81E00895CC
:102E30009C01FC0132969FEF80E04191461751F0D2
:102E40009F3F19F4411101C0982F8F5F8630A9F779
:102E50009F3F09F40895290F311D97FD3A95F90117
:102E600062830895FC01329608962191261303C0CF
:102E7000DF0111971C92E817F907B9F70895E62FBB
:102E8000E695E695E695EE3168F4E80FF92FF11D29
:102E9000677021E030E001C0220F6A95EAF7828175
:102EA000822B82830895E62FE695E695E695EE312E
:102EB00070F4E80FF92FF11D677021E030E001C0D8
:102EC000220F6A95EAF720958281282322830895AC
:102ED00020911101222329F020911A0327FD0C943F
:102EE0003F170C94181720911101222329F02091EB
:102EF0001A0327FD0C9453170C943217FC013296D9
:102F000080911101882351F080911A0387FF06C038
:102F10008EE1DF011D928A95E9F7089586E0F9CFE9
:102F2000089508950C94911780912003843049F1FD
:102F30000E94921780E00E9400031092880288E1AC
:102F400090E020E40FB6F894A895809360000FBE3F
:102F50002093600083B7817F846083BF83B78160E3
:102F600083BF7894889583B78E7F83BF0FB6F8941C
:102F7000A895809160008861809360001092600045
:102F80000FBE08950895CF930E9490170E94780570
:102F90000E94C217C0E08C2F0E941405672B682B7B
:102FA000692B31F4CF5FC630B1F780E0CF9108953F
:102FB00081E0FCCF08950C94DA170E94F90F0E946B
:102FC000620B0E9400030C94DB171F921FB61F9226
:102FD00011248F939F93AF93BF93809188028111A7
:102FE00013C08091160390911703A0911803B0911C
:102FF00019034196A11DB11D8093160390931703E9
:10300000A0931803B0931903BF91AF919F918F9133
:103010001F901FBE1F90189582E084BD93E095BD60
:103020009AEF97BD80936E0008952FB7F894809122
:10303000160390911703A0911803B09119032FBFA5
:1030400008952FB7F894609116037091170380913B
:103050001803909119032FBF08959C014FB7F8945E
:103060008091160390911703A0911803B091190352
:103070004FBF821B930B089578941F921FB61F9227
:1030800011248F939F93AF93BF93809116039091D8
:103090001703A0911803B09119030196A11DB11D4A
:1030A0008093160390931703A0931803B09319030A
:1030B000BF91AF919F918F911F901FBE1F90189548
:1030C00081E08093E00080E28093D8001092C900F4
:1030D0008FE19EE40197F1F700C0000087E090EBDC
:1030E000DC018093290390932A03A0932B03B093D0
:1030F0002C0388E19CE00FB6F894A89580936000BB
:103100000FBE90936000FFCF909395018093940140
:1031100008950E942916811102C00E94CD160E94B6
:103120003416809387020E943C1690931B03809371
:103130001A030E943816682F70E090E080E00E9429
:10314000911360915A0270915B0280915C029091A0
:103150005D020C94CB138091A90208950895CF933A
:10316000DF9300D00F92CDB7DEB79091200394305B
:1031700019F589837B836A8382E08093E9008FEF6E
:103180009091E800815095FD06C095ED9A95F1F774
:1031900000008111F5CF8091E80085FF0DC050E05F
:1031A00040E063E070E0CE0101960E94BA1A80917F
:1031B000E8008E778093E8000F900F900F90DF91DA
:1031C000CF910895BC0184E00C94AF18BC0183E05A
:1031D0000C94AF18CF93DF93EC01809111018823F9
:1031E000B1F180911A0387FF32C060E282E08093E0
:1031F000E9008FEF9091E800815095FD06C095EDB4
:103200009A95F1F700008111F5CF8091E80085FFD4
:103210001BC08091110170E050E040E0811104C0BA
:1032200050E040E068E070E0CE010E94BA1A809160
:10323000E8008E778093E80080E2FE01A9E8B2E022
:1032400001900D928A95E1F7DF91CF91089568E0A2
:1032500081E0CDCF80911F03811109C00E94481CDD
:103260000E94AA1C8091E20084608093E20008958D
:1032700010921F03089508950895089542E061ECA7
:1032800081E00E94C41B42E261EC82E00C94C41B0A
:1032900080912203833009F45FC030F48130C1F1A2
:1032A000823009F49BC008958A3009F487C08B30BE
:1032B00009F46DC0893009F04EC08091210381323C
:1032C00009F049C08091250390912603029708F0E8
:1032D00042C08091E800877F8093E8008091E800F9
:1032E00082FF35C08091F2009091F300029729F49B
:1032F0008091F1008B7F813021F48091F1008093E7
:10330000A9028091E8008B778093E8000C94F81B69
:1033100080912103813AF9F48091E800877F8093BE
:10332000E8008091250390912603892B61F460E2E7
:1033300089E892E070E00E94091B8091E8008B7799
:103340008093E800089560E090E080E0F3CF809102
:1033500020038111C3CF089580912103813AD9F7C9
:103360008091250390912603892BA9F78091E8008D
:10337000877F8093E8008091E80080FFFCCF8091F8
:1033800011018093F1008091E8008E77BDCF80918C
:103390002103813201F78091250390912603892B27
:1033A000D1F68091E800877F8093E8000E94F81BA7
:1033B00080912303809311010C94F90F80912103D4
:1033C000813249F68091E800877F8093E8000E946F
:1033D000F81B809124038093AA0208958091210311
:1033E000813A09F0B8CF8091E800877F8093E800A8
:1033F0008091E80080FFFCCF8091AA02C2CF84B701
:10340000877F84BF0FB6F894A8958091600088618B
:1034100080936000109260000FBE80E890E00FB6CD
:10342000F89480936100909361000FBE0E94D50BC9
:103430000E94481C0E94AA1C8091E2008460809334
:10344000E20078940E94391F0E94E50B87E091E02A
:103450000E945D0B809120038530A9F00E94EF0B44
:103460000E94E30B0E94E40BF5CF0E949417809119
:103470001E03882341F00E94C317882321F00E9475
:10348000A41A0E94F90F80912003853071F30E94E5
:10349000DD17E4CF0C944C1A292F33272330310544
:1034A00019F168F42130310509F444C022303105A6
:1034B00009F445C090E080E030E020E025C02132F2
:1034C000310549F122323105A9F780E490E028E87E
:1034D00033E061157105C1F08DE690E02BE133E03A
:1034E0006130710589F0E6CF99278130910581F02F
:1034F000009729F00297F1F6ECEAF2E002C0EAEC5C
:10350000F2E0849190E09F01FA01318320830895D5
:10351000E0ECF2E0F6CF89E090E020EE32E06115D9
:10352000710591F389E090E029EF32E06130710597
:1035300059F3C0CF82E190E029E033E0E5CF8BE39F
:1035400090E02EEC32E0E0CF84E189BD86E189BDD8
:1035500009B400FEFDCF8091D8008F7D8093D80004
:103560008091E00082608093E0008091E00081FD26
:10357000FCCF0895AF92BF92CF92DF92FF920F934C
:103580001F93CF93DF936C01EB018A010E94171CFC
:10359000F82E811123C00115110539F0F801808141
:1035A0009181C81BD90BC80ED91EB12CA12C209714
:1035B000A9F08091E80085FD22C08091E8008E7717
:1035C0008093E80001151105A1F0F8018081918137
:1035D000A80EB91EB182A08285E0F82E8F2DDF9152
:1035E000CF911F910F91FF90DF90CF90BF90AF9040
:1035F00008950E94171C8823D1F2F82EEFCFF60110
:1036000081916F018093F1002197FFEFAF1ABF0AFC
:10361000CECFFC018091270390912803861797074E
:10362000A0F06115710529F49091E8009E779093C0
:10363000E80090E06115710551F4911108C0809186
:10364000E80082FF33C080E00895BC01F2CF809192
:1036500020038823B9F18530B9F18091E80083FD1A
:103660002FC08091E80082FDEACF8091E80080FFC2
:10367000E1CF2091F2003091F3006115710519F04E
:103680002830310558F091E02830310509F090E0FC
:103690002091E8002E772093E800CCCF8191809391
:1036A000F100615071092F5F3F4FE7CF80912003F8
:1036B000882341F0853041F08091E80083FFBFCF3F
:1036C00081E0089582E0089583E00895FC018091EF
:1036D00027039091280386179707A0F061157105BD
:1036E00029F48091E8008E778093E80090E06115DE
:1036F000710551F4911108C08091E80082FF34C037
:1037000080E00895BC01F2CF809120038823C1F1AD
:103710008530C1F18091E80083FD30C08091E800E0
:1037200082FDEACF8091E80080FFE1CF2091F20096
:103730003091F3006115710519F02830310558F00A
:1037400091E02830310509F090E08091E8008E7713
:103750008093E800CCCF84918093F1003196615042
:1037600071092F5F3F4FE6CF80912003882341F0FE
:10377000853041F08091E80083FFBECF81E008955D
:1037800082E0089583E00895982F973028F08F7095
:103790008093E90081E008959093E900242F762F2B
:1037A00050E0981731F07091EC002091ED005091AD
:1037B000F00021FD02C09F5FE8CF3091EB003E7F1B
:1037C0003093EB003091ED003D7F3093ED00309170
:1037D000EB0031603093EB007093EC002093ED0030
:1037E0005093F0002091EE0027FDE5CF80E0089592
:1037F0008091210387FF13C08091E80082FF06C0FB
:103800008091E8008B778093E80004C080912003CA
:103810008111F2CF0895809120038823D9F38091FC
:10382000E80080FFF8CF8091E8008E77ECCF209100
:10383000E4003091E50095E6A9012091EC00822F8B
:10384000817020FF06C08091E80080FF06C080E004
:1038500008952091E80022FD1AC08091200388235A
:1038600089F0853089F08091EB0085FD0FC02091B3
:10387000E4003091E50042175307F9F29150E1F668
:1038800084E0089582E0089583E0089581E008953A
:103890000E94B91C0E94C11CE0EEF0E080818160B2
:1038A0008083E8EDF0E080818F77808319BCA7EDFD
:1038B000B0E08C918E7F8C9380818F7E808310927C
:1038C0001F0308950F931F93CF93DF930E94B91C9A
:1038D0000E94C11CC8EDD0E088818F7788838881E1
:1038E0008068888388818F7D8883E7EDF0E0808120
:1038F0008068808319BC1092200310921C031092E0
:103900001E0310921D0300EE10E0F80180818B7FF2
:10391000808388818160888342E060E080E00E944B
:10392000C41BE1EEF0E080818E7F8083E2EEF0E068
:10393000808181608083808188608083F8018081BC
:103940008E7F8083888180618883DF91CF911F91F2
:103950000F910895E8EDF0E080818F7E8083E7EDA0
:10396000F0E080818160808381E080931F030C946C
:10397000621CE8EDF0E080818C7F80831092E20091
:1039800008951092DA001092E10008951F920F92AC
:103990000FB60F9211240BB60F922F933F934F93B4
:1039A0005F936F937F938F939F93AF93BF93EF93A7
:1039B000FF938091E10082FF0BC08091E20082FFC3
:1039C00007C08091E1008B7F8093E1000E94381F47
:1039D0008091DA0080FF19C08091D80080FF15C067
:1039E0008091DA008E7F8093DA008091D90080FF89
:1039F00098C084E189BD86E189BD09B400FEFDCF90
:103A000081E0809320030E942A198091E10080FFC9
:103A100019C08091E20080FF15C08091E2008E7F86
:103A20008093E2008091E20080618093E2008091C7
:103A3000D80080628093D80019BC85E08093200371
:103A40000E943C198091E10084FF2BC08091E2002C
:103A500084FF27C084E189BD86E189BD89B5982F9F
:103A6000917080FFFBCF8091D8008F7D8093D8002C
:103A70008091E1008F7E8093E1008091E2008F7E53
:103A80008093E2008091E20081608093E200809167
:103A90001C03882309F44BC084E0809320030E9418
:103AA0003D198091E10083FF29C08091E20083FFEE
:103AB00025C08091E100877F8093E10082E08093C0
:103AC000200310921C038091E1008E7F8093E1001F
:103AD0008091E2008E7F8093E2008091E20080611D
:103AE0008093E20042E060E080E00E94C41B80918D
:103AF000F00088608093F0000E943B19FF91EF91E5
:103B0000BF91AF919F918F917F916F915F914F91F5
:103B10003F912F910F900BBE0F900FBE0F901F90F3
:103B2000189519BC109220030E9438196ECF80910D
:103B3000E30087FD93E090932003B1CF1F920F9293
:103B40000FB60F9211240BB60F922F933F934F9302
:103B50005F936F937F938F939F93AF93BF93CF9315
:103B6000DF93EF93FF93D091E900DF708091EC0039
:103B7000C82FC17080FDC0E81092E9008091F0006C
:103B8000877F8093F00078940E94E61D1092E900F0
:103B90008091F00088608093F000CD2BCF70C093AF
:103BA000E900FF91EF91DF91CF91BF91AF919F918C
:103BB0008F917F916F915F914F913F912F910F90D6
:103BC0000BBE0F900FBE0F901F9018951F93CF93B1
:103BD000DF93CDB7DEB7AA970FB6F894DEBF0FBE5E
:103BE000CDBF81E293E02091F100FC012193CF0150
:103BF000F3E089329F07B9F70E9448198091E800E5
:103C000083FF1EC180912103909122039A3008F016
:103C100017C1E92FF0E0E351F04E0C94681F803893
:103C200099F0823809F00CC1809125038F7087309C
:103C300008F006C18093E9008091EB0085FB88279E
:103C400080F91092E90006C080911D0390911E0337
:103C5000911182609091E800977F9093E8008093A3
:103C6000F1001092F1008091E8008E77E5C0882382
:103C700009F4D3C0823009F0E3C08091230381119D
:103C8000D6C0809125038F702FEF280F263008F0C3
:103C9000D7C08093E9002091EB0020FFC8C093308B
:103CA00031F48091EB0080628093EB00C0C0909172
:103CB000EB0090619093EB0021E030E001C0220F17
:103CC0008A95EAF72093EA001092EA008091EB00CF
:103CD0008860EACF8111B4C0109123031F778091CF
:103CE000E3008078812B8093E3008091E800877F58
:103CF0008093E8000E94F81B8091E80080FFFCCFD1
:103D00008091E30080688093E30082E0111183E0FA
:103D10008093200395C08058823008F091C0809134
:103D20002303909124038C3D23E09207A1F583E0C7
:103D30008A838AE289834FB7F894DE01139620E0E4
:103D40003EE051E2E32FF0E050935700E49120FF72
:103D500003C0E295EF703F5FEF708E2F90E0EA3086
:103D6000C0F0C7968D939D932F5F243159F74FBFB5
:103D70008091E800877F8093E8006AE270E0CE01DE
:103D800001960E94091B8091E8008B778093E800E0
:103D900057C0C096E7CF6091250370912603AE010E
:103DA0004F5F5F4F0E944A1ABC01892B09F448C03B
:103DB0009091E800977F9093E80089819A810E9412
:103DC000661BE1CF8038E1F58091E800877F809322
:103DD000E80080911C038093F10045CF811130C031
:103DE00090912303923060F58091E800877F809363
:103DF000E80090931C030E94F81B80911C03882309
:103E000011F084E005C08091E30087FDFACF81E0E6
:103E1000809320030E943E1913C0809123038130B8
:103E200079F481E0933009F080E080931E031092D2
:103E3000E9008091E800877F8093E8000E94F81BEA
:103E40008091E80083FF0AC08091E800877F80931B
:103E5000E8008091EB0080628093EB00AA960FB699
:103E6000F894DEBF0FBECDBFDF91CF911F910895B3
:103E70000895CF93809120038823A1F0C091E90099
:103E8000CF709091EC00892F817090FD80E8C82B55
:103E90001092E9008091E80083FD0E94E61DCF703A
:103EA000C093E900CF910895AA1BBB1B51E107C045
:103EB000AA1FBB1FA617B70710F0A61BB70B881FBA
:103EC000991F5A95A9F780959095BC01CD01089549
:103ED000EE0FFF1F0024001C0BBE0790F691E02D93
:103EE0000994F999FECF92BD81BDF89A992780B5C2
:103EF0000895A6E1B0E044E050E00C94AB1FA8E1C7
:103F0000B0E042E050E00C94AB1F262FF999FECFB1
:103F100092BD81BDF89A019700B4021639F01FBA1C
:103F200020BD0FB6F894FA9AF99A0FBE0895039639
:103F3000272F0E94861F0E94851F252F0E94861F03
:103F4000242F0C94861F0196272F0E94861F0C9405
:103F5000851FDC01CB01FC01F999FECF06C0F2BD43
:103F6000E1BDF89A319600B40D9241505040B8F737
:103F70000895F894FFCFE408EC08F308F808FD086A
:103F8000020907090C09110916091B092009E6088D
:103F9000E608E608E608E608E608E608E608D10DC1
:103FA000D10D290E290E7B0EFE0DFE0DFE0D970E76
:103FB000230F320F320F8E0FFE0DFE0D970F0810DC
:103FC00008101110111013101110111011100810F9
:103FD000081018101110111018100F1E371E201F76
:0E3FE000371E201F6A1E8B1E201FE21EEE1EC3
:103FEE0000120012126402AB18EA18AE18E618E2BC
:103FFE001801E200E900EA00B500B600B700CD00F6
:10400E008301CC008A019201940121022302240231
:10401E002502260227022A02B300B4006F007000A8
:10402E00818283F0F1F2F3F4F5F6F7000102030456
:10403E00050607676665646362973034353637C4A4
:10404E000001E200E900EA00B500B600B700CD00BD
:10405E008301CC008A0192019401210223022402E1
:10406E002502260227022A02B300B4006F00700058
:04407E0081828300B8
:00000001FF
